:020000040000FA
:0400000007EF00F016
:0A0008005F82D8ED1BF0A0EF1BF0A3
:1008000000252E326620566F6C747300494E4600E8
:100810004E414E00696E66006E616E006C660000AF
:10082000000E0001806F000E7F6F57C091F058C01E
:1008300092F059C093F05AC094F094BF24EF04F0A2
:1008400022EF04F03AEF04F0000E806F010E7F6F8C
:1008500091C001F092C002F093C003F094C004F084
:1008600039EC1BF001C091F002C092F003C093F08C
:1008700004C094F0000E0001986F000E976FD3C073
:1008800084F0D4C085F07F518011D8A44AEF04F0E1
:100890004CEF04F053EF04F0D7A551EF04F053EF01
:1008A00004F06DEF04F07F518011D8A45AEF04F0EA
:1008B0005CEF04F062EF04F0000E6A6F2B0E696FBC
:1008C00066EF04F0000E6A6F2D0E696F69C000F1CB
:1008D000974B982B8407D8A0850791C001F092C050
:1008E00002F093C003F094C004F04CEC16F0010445
:1008F0000210D8A47EEF04F080EF04F0D7EF04F0EC
:10090000BF0E0001606FFF0E616F5B50626F636B23
:10091000605162276151632363510AE11A0E625DDF
:10092000D8A095EF04F098EF04F0010E99EF04F0D1
:10093000000E6B6F6C6B6B516C11D8B4A2EF04F0AE
:10094000A4EF04F0B2EF04F0000E9725016E010E43
:100950009821026E0C0E036E080E046E60EC1AF005
:10096000BEEF04F0000E9725016E010E9821026E75
:10097000140E036E080E046E60EC1AF00001FD0EFA
:100980008427FF0E852355C017F056C018F0000EBF
:10099000196E010E1A6E84C01BF085C01CF036EC77
:1009A00017F017C055F018C056F00EEF0AF091C0BE
:1009B00001F092C002F093C003F094C004F04CEC3C
:1009C00016F001500210D8A4E8EF04F0EAEF04F0AA
:1009D00041EF05F0BF0E0001606FFF0E616F5B50CD
:1009E000626F636B605162276151632363510AE157
:1009F0001A0E625DD8A0FFEF04F002EF05F0010EC1
:100A000003EF05F0000E6D6F6E6B6D516E11D8B473
:100A10000CEF05F00EEF05F01CEF05F0000E97252A
:100A2000016E010E9821026E100E036E080E046E08
:100A300060EC1AF028EF05F0000E9725016E010E0C
:100A40009821026E180E036E080E046E60EC1AF008
:100A50000001FD0E8427FF0E852355C017F056C0F8
:100A600018F0000E196E010E1A6E84C01BF085C0BE
:100A70001CF036EC17F017C055F018C056F00EEF0A
:100A80000AF0000E0001996F000E9A6F800E9B6FA6
:100A90003F0E9C6F000E966F000E956F91C001F097
:100AA00092C002F093C003F094C004F0000E056EF3
:100AB000000E066E000E076E000E086E53EC18F066
:100AC000D8B065EF05F067EF05F0EAEF05F086EFC7
:100AD00005F099C00FF09AC010F09BC011F09CC0B7
:100AE00012F0000E136E000E146E200E156E410EE5
:100AF000166EBAEC0EF00FC099F010C09AF011C04B
:100B00009BF012C09CF00001954B962B91C028F0F1
:100B100092C029F093C02AF094C02BF0000E136EFF
:100B2000000E146E200E156E410E166E99C00FF059
:100B30009AC010F09BC011F09CC012F0BAEC0EF0FD
:100B40000FC02CF010C02DF011C02EF012C02FF0ED
:100B5000CAEC15F0D8B0AFEF05F0B1EF05F069EFD2
:100B600005F0D1EF05F099C028F09AC029F09BC09C
:100B70002AF09CC02BF0000E2C6E000E2D6E200E65
:100B80002E6E410E2F6ECFEC10F028C099F029C0C8
:100B90009AF02AC09BF02BC09CF000019507D8A0CA
:100BA000960791C028F092C029F093C02AF094C013
:100BB0002BF099C02CF09AC02DF09BC02EF09CC059
:100BC0002FF0CAEC15F0D8A0E8EF05F0EAEF05F039
:100BD000B3EF05F05BC007F0086A30EC1AF007507D
:100BE0000001866F86C083F0670E8619D8A4FBEFDC
:100BF00005F0FDEF05F023EF06F0D551D611D8A48E
:100C000004EF06F006EF06F00AEF06F0000ED66FCE
:100C1000010ED56FD6BF17EF06F0D65106E1D50508
:100C2000D8B015EF06F017EF06F01DEF06F0000E36
:100C3000826F060E816F2CEF06F0D5C081F0D6C012
:100C400082F02CEF06F0D6BF28EF06F02AEF06F070
:100C500017EF06F01DEF06F0670E8619D8A433EFE4
:100C600006F035EF06F064EF06F096AF43EF06F0BE
:100C7000FC0E955DFF0E9659D8A041EF06F043EFAC
:100C800006F062EF06F0FF0E606FFF0E616F81C02D
:100C900062F082C063F06051622761516323955115
:100CA000625D6351800A646F9651800A6459D8A0CE
:100CB0005CEF06F05EEF06F062EF06F0660E836F03
:100CC00064EF06F0650E836F81C079F082C07AF020
:100CD000670E8619D8A46FEF06F071EF06F081EF6A
:100CE00006F0660E8319D8A478EF06F07AEF06F0C6
:100CF00083EF06F096BF81EF06F07FEF06F083EFFB
:100D000006F0794B7A2B660E8319D8A48AEF06F089
:100D10008CEF06F0ACEF06F096BF93EF06F091EF84
:100D200006F09FEF06F0000E996F000E9A6F800E8E
:100D30009B6F3F0E9C6F000E966F000E956F670EB7
:100D40008619D8B4A6EF06F0A8EF06F0ACEF06F0CF
:100D50009551792796517A23000E906F000E8F6F70
:100D600091C087F092C088F093C089F094C08AF057
:100D700099C065F09AC066F09BC067F09CC068F0AF
:100D80003DEF07F087C028F088C029F089C02AF01D
:100D90008AC02BF099C02CF09AC02DF09BC02EF089
:100DA0009CC02FF0CFEC10F028C041F029C042F0D9
:100DB0002AC043F02BC044F09CEC12F041C08BF0F1
:100DC00042C08CF043C08DF044C08EF08BC001F067
:100DD0008CC002F08DC003F08EC004F047EC15F01B
:100DE00001C07DF002C07EF087C028F088C029F0E5
:100DF00089C02AF08AC02BF099C013F09AC014F071
:100E00009BC015F09CC016F08BC00FF08CC010F08A
:100E10008DC011F08EC012F0BAEC0EF00FC02CF0A5
:100E200010C02DF011C02EF012C02FF0B7EC1AF048
:100E300028C087F029C088F02AC089F02BC08AF02A
:100E400099C028F09AC029F09BC02AF09CC02BF0D2
:100E5000000E2C6E000E2D6E200E2E6E410E2F6E8B
:100E6000CFEC10F028C099F029C09AF02AC09BF06E
:100E70002BC09CF000018F4B902B79518F5D9051CE
:100E8000800A606F7A51800A6059D8A04AEF07F053
:100E90004CEF07F0C2EF06F099C00FF09AC010F0C7
:100EA0009BC011F09CC012F0000E136E000E146E69
:100EB000A00E156E400E166EBAEC0EF00FC08BF041
:100EC00010C08CF011C08DF012C08EF087C028F0D9
:100ED00088C029F089C02AF08AC02BF08BC02CF082
:100EE0008CC02DF08DC02EF08EC02FF0CAEC15F006
:100EF000D8B07DEF07F07FEF07F08AEF07F0000E24
:100F000000018B6F000E8C6F000E8D6F000E8E6FC8
:100F1000B3EF07F087C001F088C002F089C003F08A
:100F20008AC004F08BC005F08CC006F08DC007F0BD
:100F30008EC008F053EC18F0D8A0A1EF07F0A3EF93
:100F400007F0B3EF07F000017DB1A9EF07F0ABEFB9
:100F500007F0B3EF07F0000E8B6F000E8C6F000EE2
:100F60008D6F000E8E6F91C001F092C002F093C0A1
:100F700003F094C004F08BC005F08CC006F08DC067
:100F800007F08EC008F00FEC0AF001C087F002C035
:100F900088F003C089F004C08AF065C099F066C08B
:100FA0009AF067C09BF068C09CF0650E0001831941
:100FB000D8B4DDEF07F0DFEF07F0E5EF07F095C0FD
:100FC0007BF096C07CF0E9EF07F0000E7C6F000E1E
:100FD0007B6F000E786F000E776F000E766F000E3D
:100FE000756F000E906F000E8F6FE4EF08F087C0F2
:100FF00028F088C029F089C02AF08AC02BF099C057
:101000002CF09AC02DF09BC02EF09CC02FF0CFEC9E
:1010100010F028C041F029C042F02AC043F02BC094
:1010200044F09CEC12F041C08BF042C08CF043C005
:101030008DF044C08EF08BC001F08CC002F08DC0EA
:1010400003F08EC004F047EC15F001C07DF002C043
:101050007EF00001D7B92FEF08F031EF08F04EEF26
:1010600008F07D517E11D8A438EF08F03AEF08F06F
:101070004EEF08F0670E8619D8A441EF08F043EF51
:1010800008F04EEF08F07CBF4AEF08F048EF08F098
:101090004EEF08F0754B762B98EF08F077517811EA
:1010A000D8A455EF08F057EF08F081EF08F07CBFA7
:1010B0005EEF08F05CEF08F081EF08F0000E972576
:1010C000D96E010E9821DA6E2E0EDF6E974B982B9B
:1010D0008407D8A08507000E786F010E776F81EF27
:1010E00008F0000E9725D96E010E9821DA6E300EA9
:1010F000DF6E974B982B8407D8A085077507D8A07B
:10110000760775517611D8A488EF08F08AEF08F0B9
:1011100071EF08F0000E9725D96E010E9821DA6E56
:101120007D51300FDF6E974B982B8407D8A0850731
:1011300087C028F088C029F089C02AF08AC02BF027
:1011400099C013F09AC014F09BC015F09CC016F023
:101150008BC00FF08CC010F08DC011F08EC012F05B
:10116000BAEC0EF00FC02CF010C02DF011C02EF014
:1011700012C02FF0B7EC1AF028C087F029C088F011
:101180002AC089F02BC08AF099C028F09AC029F0B3
:101190009BC02AF09CC02BF0000E2C6E000E2D6E12
:1011A000200E2E6E410E2F6ECFEC10F028C099F05D
:1011B00029C09AF02AC09BF02BC09CF000017B074D
:1011C000D8A07C078F4B902B79518F5D9051800A6E
:1011D000606F7A51800A6059D8B0F1EF08F0F3EFF0
:1011E00008F001EF09F098BFFFEF08F0985109E10E
:1011F0004B0E975DD8A0FFEF08F001EF09F0F7EF75
:1012000007F077517811D8A408EF09F00AEF09F038
:101210001BEF09F0D7A90FEF09F011EF09F01BEF51
:1012200009F0000E9725D96E010E9821DA6E2E0E68
:10123000DF6E974B982B000E9725D96E010E9821E3
:10124000DA6E000EDF6E650E8319D8A42AEF09F05E
:101250002CEF09F0FCEF09F0000E906F4F0E8F6F2E
:10126000000E8F25D96E010E9021DA6E000EDF6E12
:10127000000E806F000E7F6F96BF43EF09F041EFC5
:1012800009F04BEF09F0000E806F010E7F6F956D36
:10129000961FD8B0962B000E826F020E816F7CEFE6
:1012A00009F08F07D8A09007000E8F25D96E010E88
:1012B0009021DA6E95C001F096C002F0000E046E27
:1012C0000A0E036EFBEC17F00150300FDF6E95C075
:1012D00001F096C002F0000E046E0A0E036E99EC47
:1012E00017F001C095F002C096F000018107D8A068
:1012F00082078407D8A0850795519611D8A483EF5B
:1013000009F085EF09F051EF09F082BF92EF09F083
:10131000825106E18105D8B090EF09F092EF09F013
:1013200051EF09F08F07D8A090077F518011D8A402
:101330009CEF09F09EEF09F0A4EF09F0000E706F2A
:101340002B0E6F6FA8EF09F0000E706F2D0E6F6FF0
:10135000000E8F25D96E010E9021DA6E6FC0DFFF6F
:101360008407D8A085078F07D8A09007BF0E606FAD
:10137000FF0E616F5B50626F636B6051622761515A
:10138000632363510AE11A0E625DD8A0CAEF09F027
:10139000CDEF09F0010ECEEF09F0000E736F746B04
:1013A00073517411D8A4D7EF09F0D9EF09F0DFEF2A
:1013B00009F0000E726F650E716FE3EF09F0000E19
:1013C000726F450E716F000E8F25D96E010E902140
:1013D000DA6E71C0DFFF8407D8A08507000E97255D
:1013E000016E010E9821026E000E8F25036E010E14
:1013F0009021046E60EC1AF055C017F056C018F03A
:10140000000E196E010E1A6E84C01BF085C01CF010
:1014100036EC17F017C055F018C056F01200045003
:10142000800B0D6E045004240F6E03AE1AEF0AF009
:101430001CEF0AF01DEF0AF00F800F50D8B423EF15
:101440000AF025EF0AF03AEF0AF00F28D8A42BEFA4
:101450000AF02DEF0AF035EF0AF0000E016E000ED3
:10146000026E000E036E000E046E038E000E046EFC
:1014700042EF0AF0000E016E000E026E000E036EC7
:10148000000E046E0850800B0E6E0D500E18D8B46E
:101490004CEF0AF04EEF0AF04FEF0AF00D8C0850B7
:1014A00008240E6E07AE57EF0AF059EF0AF05AEF14
:1014B0000AF00E800E50D8B460EF0AF062EF0AF026
:1014C00077EF0AF00E28D8A468EF0AF06AEF0AF066
:1014D00072EF0AF0000E056E000E066E000E076E2B
:1014E000000E086E078E000E086E7FEF0AF0000EE9
:1014F000056E000E066E000E076E000E086E0F5091
:101500000E5CD8B086EF0AF088EF0AF0AFEF0AF071
:101510000DAC8DEF0AF08FEF0AF091EF0AF0800E1C
:101520000D1A0FC010F00EC00FF010C00EF001C069
:1015300010F005C001F010C005F002C010F006C0A8
:1015400002F010C006F003C010F007C003F010C096
:1015500007F004C010F008C004F010C008F0000E3E
:10156000106E0F500EC009F00A6A095E000E0A5A8A
:101570000ABEC4EF0AF00A5009E11A0E095CD8A0AD
:10158000C4EF0AF0C6EF0AF0FDEF0AF001500210B6
:1015900003100410D8A4CFEF0AF0D2EF0AF0010E26
:1015A000D3EF0AF0000E106E000E016E000E026EF8
:1015B000000E036E000E046E0EC00FF006EF0BF06F
:1015C00010A0E5EF0AF0E7EF0AF0EDEF0AF0D8908F
:1015D00010300109106EEFEF0AF0D890103201A020
:1015E000F4EF0AF0F6EF0AF0F7EF0AF0108E043489
:1015F00004320332023201320F2A0E500F5CD8A09F
:1016000004EF0BF006EF0BF0E0EF0AF00DBC0BEF70
:101610000BF00DEF0BF04DEF0BF00F50D8A413EFC4
:101620000BF015EF0BF01FEF0BF0000E016E000E2C
:10163000026E000E036E000E046E6EEF0CF005508D
:10164000012606500222075003220850042204A05B
:101650002CEF0BF02EEF0BF0DAEF0BF010A033EFC6
:101660000BF035EF0BF03BEF0BF0D8901030010989
:10167000106E3DEF0BF0D890103201A042EF0BF04E
:1016800044EF0BF045EF0BF0108E043404320332BC
:10169000023201320F2ADAEF0BF00550015C0650DE
:1016A0000258075003580450800A096E0850800AF7
:1016B0000958D8B05EEF0BF060EF0BF08BEF0BF03A
:1016C0000150055C096E025006580A6E0350075817
:1016D0000B6E045008580C6EFF0E0924016EFF0EAD
:1016E0000A20026EFF0E0B20036EFF0E0C20046E0C
:1016F000800E0D1A106C1050D8A481EF0BF083EF00
:101700000BF093EF0BF0010E0126000E02220322D4
:10171000042293EF0BF00550015E0650025A075069
:10172000035A0850045A0150021003100410D8A4A0
:101730009CEF0BF09EEF0BF0D3EF0BF01050D8A402
:10174000A4EF0BF0A6EF0BF0D3EF0BF0000E016E41
:10175000000E026E000E036E000E046E6EEF0CF0B3
:10176000D890013602360336043610AEBAEF0BF0CD
:10177000BCEF0BF0BDEF0BF0018010A0C2EF0BF03F
:10178000C4EF0BF0C8EF0BF0D8801036CAEF0BF0A7
:10179000D89010360F50D8B4D0EF0BF0D2EF0BF03A
:1017A000D3EF0BF00F0603AED8EF0BF0DAEF0BF030
:1017B000B0EF0BF0000E0E6E10AEE1EF0BF0E3EFAA
:1017C0000BF0FBEF0BF010C009F07F0E0916D8B438
:1017D000ECEF0BF0EEEF0BF0F2EF0BF0010E0E6EF4
:1017E000FBEF0BF001A0F7EF0BF0F9EF0BF0FBEFC5
:1017F0000BF0EEEF0BF00E50D8B401EF0CF003EF4E
:101800000CF02EEF0CF0010E0126000E0222032236
:10181000042204A00EEF0CF010EF0CF02EEF0CF0F1
:1018200001C009F002C00AF003C00BF004C00CF0C4
:101830000C340C320B320A32093209C001F00AC0F2
:1018400002F00BC003F00CC004F00F28D8B42BEF4B
:101850000CF02DEF0CF02EEF0CF00F2A0F28D8B45F
:1018600034EF0CF036EF0CF03EEF0CF00F50D8A434
:101870003CEF0CF03EEF0CF050EF0CF0000E016E60
:10188000000E026E000E036E000E046E0F50D8A400
:101890004CEF0CF04EEF0CF050EF0CF0000E0D6E14
:1018A0000FA055EF0CF057EF0CF05AEF0CF0038E31
:1018B0005BEF0CF0039ED8900F30046E0DAE63EF1B
:1018C0000CF065EF0CF066EF0CF0048E01C001F037
:1018D00002C002F003C003F004C004F012009FC075
:1018E000D9FFA0C0DAFFDECFF6FFDDCFF7FF08009B
:1018F000F550250AD8A47FEF0CF081EF0CF09EEF95
:101900000EF09FC0D9FFA0C0DAFFDE2A000EDD2254
:10191000000E0001D46F000ED36FD3C0D7F0D4C037
:10192000D8F0D569D6699FC0D9FFA0C0DAFFDECF55
:10193000F6FFDDCFF7FF0800F5502E0AD8A4A3EF7D
:101940000CF0A5EF0CF023EF0DF0000ED66F000E9B
:10195000D56F9FC0D9FFA0C0DAFFDE2A000EDD22BE
:101960009FC0D9FFA0C0DAFFDECFF6FFDDCFF7FFC3
:101970000800F5502A0AD8A4C0EF0CF0C2EF0CF012
:10198000DFEF0CF09FC0D9FFA0C0DAFFDE2A000E07
:10199000DD22A1C0D9FFA2C0DAFFDFCFA3F0020E83
:1019A000DE26DFCFA4F0000EDD22A3C0D9FFA4C045
:1019B000DAFFDECFD5F0DDCFD6F023EF0DF09FC0FC
:1019C000D9FFA0C0DAFFDECF08F0DDCF09F07FEC51
:1019D00014F008C0D5F009C0D6F0F6EF0CF09FC0A7
:1019E000D9FFA0C0DAFFDE2A000EDD22D00E0001F2
:1019F000A36FFF0EA46F9FC0D9FFA0C0DAFFDECF98
:101A0000F6FFDDCFF7FF0800F550A56FA66BA351D9
:101A1000A527A451A623A6510AE10A0EA55DD8A0C8
:101A200014EF0DF017EF0DF0010E18EF0DF0000E92
:101A3000A76FA86BA751A811D8A421EF0DF023EF31
:101A40000DF0EFEF0CF09FC0D9FFA0C0DAFFDECFA2
:101A5000F6FFDDCFF7FF0800F550076E086A30EC9F
:101A60001AF007500001AF6FAF51D8B43AEF0DF044
:101A70003CEF0DF076EF0DF09FC0D9FFA0C0DAFF6C
:101A8000DECFA3F0DDCFA4F0010EA327000EA42328
:101A9000A3C0F6FFA4C0F7FF0800F550076E086A60
:101AA00030EC1AF007500001B06FB051D8B45BEFC2
:101AB0000DF05DEF0DF076EF0DF09FC0D9FFA0C0E7
:101AC000DAFFDECFA3F0DDCFA4F0020EA327000ED5
:101AD000A423A3C0F6FFA4C0F7FF0800F550076ECB
:101AE000086A30EC1AF007500001B16F660EAF19AA
:101AF000D8A47DEF0DF07FEF0DF0BFEF0DF09FC08C
:101B0000D9FFA0C0DAFFDECFF6FFDDCFF7FF080078
:101B1000F5CFB2F09FC0D9FFA0C0DAFFDE2A000ED9
:101B2000DD22A1C0D9FFA2C0DAFFDFCFA3F0040EEF
:101B3000DE26DFCFA4F0000EDD22A3C0D9FFA4C0B3
:101B4000DAFFDECFABF0DECFACF0DECFADF0DECF34
:101B5000AEF09DC055F09EC056F0ABC057F0ACC083
:101B600058F0ADC059F0AEC05AF0B2C05BF010EC06
:101B700004F055C09DF056C09EF0B9EF0EF0AF0EC8
:101B8000016E000E026E1C0E036E080E046E000E37
:101B9000066E020E056ECBEC16F001500210D8A4B2
:101BA000D4EF0DF0D6EF0DF066EF0EF09FC0D9FF29
:101BB000A0C0DAFFDECFA3F0DDCFA4F0010E00015C
:101BC000A327000EA423A3C0F6FFA4C0F7FF0800BC
:101BD000F5CFB2F0BF0EA36FFF0EA46F9FC0D9FF69
:101BE000A0C0DAFFDECFF6FFDDCFF7FF0800F5502B
:101BF000A56FA66BA351A527A451A623A6510AE160
:101C00001A0EA55DD8A007EF0EF00AEF0EF0010E38
:101C10000BEF0EF0000EA96FAA6BA951AA11D8B450
:101C200014EF0EF016EF0EF030EF0EF0A1C0D9FF5A
:101C3000A2C0DAFFDFCFA3F0040EDE26DFCFA4F0D0
:101C4000000EDD22A3C0D9FFA4C0DAFFDECFABF0C7
:101C5000DECFACF0DECFADF0DECFAEF048EF0EF071
:101C6000A1C0D9FFA2C0DAFFDFCFA3F0040EDE26A9
:101C7000DFCFA4F0000EDD22A3C0D9FFA4C0DAFF9D
:101C8000DECFABF0DECFACF0DECFADF0DECFAEF02E
:101C9000020E9FC0D9FFA0C0DAFFDE26000EDD22B3
:101CA0009DC055F09EC056F0ABC057F0ACC058F088
:101CB000ADC059F0AEC05AF0B2C05BF010EC04F009
:101CC00055C09DF056C09EF0B9EF0EF09FC0D9FFF1
:101CD000A0C0DAFFDECFF6FFDDCFF7FF0800F5503A
:101CE000250AD8A476EF0EF078EF0EF090EF0EF004
:101CF0009FC0D9FFA0C0DAFFDE2A000EDD22000E51
:101D0000086E250E076E9DC009F09EC00AF0A8EC73
:101D100018F0000E00019E6F010E9D6FB9EF0EF0DE
:101D20009FC0D9FFA0C0DAFFDE2A000EDD22000E20
:101D300000019E6F000E9D6FB9EF0EF09FC0D9FF9E
:101D4000A0C0DAFFDECFF6FFDDCFF7FF0800F550C9
:101D5000076E086A9DC009F09EC00AF0A8EC18F052
:101D60009FC0D9FFA0C0DAFFDE2A000EDD2289EF76
:101D70000EF012001250800B1B6E12501224216EB6
:101D800011AEC5EF0EF0C7EF0EF0C8EF0EF02180D8
:101D90002150D8B4CEEF0EF0D0EF0EF0E3EF0EF0FE
:101DA0002128D8A4D6EF0EF0D8EF0EF0E0EF0EF019
:101DB000000E0F6E000E106E000E116E000E126EF1
:101DC000118EEBEF0EF0000E0F6E000E106E000E77
:101DD000116E000E126E1650800B1B1A1650162430
:101DE000206E15AEF6EF0EF0F8EF0EF0F9EF0EF0F4
:101DF00020802050D8B4FFEF0EF001EF0FF014EF69
:101E00000FF02028D8A407EF0FF009EF0FF011EF23
:101E10000FF0000E136E000E146E000E156E000E05
:101E2000166E158E1CEF0FF0000E136E000E146E62
:101E3000000E156E000E166E2050D8B422EF0FF073
:101E400024EF0FF02CEF0FF02150D8A42AEF0FF061
:101E50002CEF0FF036EF0FF0000E0F6E000E106E2D
:101E6000000E116E000E126ECEEF10F015500F0224
:101E7000F3CF26F0F4CF27F026501C6E1D6A1E6AA1
:101E80001F6A2750226E236A246A256A14501002A2
:101E9000F3CF26F0F4CF27F026501C26000E1D228B
:101EA0001E221F2227502226000E23222422252212
:101EB00013501102F3CF26F0F4CF27F026501C2642
:101EC000000E1D221E221F2227502226000E232232
:101ED000242225221EC01FF01DC01EF01CC01DF0B4
:101EE0001C6A13501002F3CF26F0F4CF27F02650CF
:101EF0001C2627501D22000E1E22000E1F221450E9
:101F00000F02F3CF26F0F4CF27F026501C262750DF
:101F10001D22000E1E22000E1F221EC01FF01DC01B
:101F20001EF01CC01DF01C6A13500F02F3CF26F0E8
:101F3000F4CF27F026501C2627501D22000E1E220B
:101F4000000E1F2215501002F3CF26F0F4CF27F019
:101F50002650222627502322000E2422000E25225E
:101F600014501102F3CF26F0F4CF27F0265022268A
:101F700027502322000E2422000E25221550110284
:101F8000F3CF26F0F4CF27F02650176E2750186EA7
:101F9000196A1A6A19C01AF018C019F017C018F097
:101FA000176A1750222618502322195024221A503B
:101FB00025221CC017F01DC018F01EC019F01FC04C
:101FC0001AF0190EE9EF0FF0D8901A3219321832C0
:101FD0001732E82EE4EF0FF0175022261850232274
:101FE000195024221A5025221EC01FF01DC01EF0B9
:101FF0001CC01DF01C6A205021C017F0186A17265B
:10200000000E1822820E1724266EFF0E1820276E4F
:102010001FEF10F0D89022362336243625361FAE17
:1020200014EF10F016EF10F017EF10F02280D89098
:102030001C361D361E361F362606D8A0270624AEAF
:1020400024EF10F026EF10F00AEF10F0000E206ED3
:102050001FAE2DEF10F02FEF10F053EF10F0FF0E2A
:102060001C14176EFF0E1D14186EFF0E1E14196E31
:102070007F0E1F141A6E1750181019101A10D8B4AA
:1020800044EF10F046EF10F04AEF10F0010E206E12
:1020900053EF10F022A04FEF10F051EF10F053EF7C
:1020A00010F046EF10F02050D8B459EF10F05BEF6D
:1020B00010F07FEF10F0010E2226000E23222422C2
:1020C000252225A066EF10F068EF10F07FEF10F0EA
:1020D00022C017F023C018F024C019F025C01AF050
:1020E0001A341A3219321832173217C022F018C0B7
:1020F00023F019C024F01AC025F0264A272A27BE4B
:102100008AEF10F0275008E12628D8A08AEF10F0B7
:102110008CEF10F096EF10F0000E226E000E236E82
:10212000800E246E7F0E256EC4EF10F027BEA3EF45
:1021300010F0275006E12604D8B0A1EF10F0A3EF6D
:1021400010F0AFEF10F0000E226E000E236E000EA6
:10215000246E000E256E000E1B6EC4EF10F026C01C
:1021600021F0FF0E2216FF0E23167F0E2416000EFE
:10217000251621A0BEEF10F0C0EF10F0C1EF10F057
:10218000248ED8902130256E1B50251222C00FF0CE
:1021900023C010F024C011F025C012F012002B5003
:1021A000800B386E2B502B243F6E2AAEDAEF10F0E6
:1021B000DCEF10F0DDEF10F03F803F50D8B4E3EFDC
:1021C00010F0E5EF10F0FAEF10F03F28D8A4EBEF95
:1021D00010F0EDEF10F0F5EF10F0000E286E000E8D
:1021E000296E000E2A6E000E2B6E2A8E000E2B6EAC
:1021F00002EF11F0000E286E000E296E000E2A6EFE
:10220000000E2B6E2F50800B381A2F502F24406E4B
:102210002EAE0DEF11F00FEF11F010EF11F0408026
:102220004050D8B416EF11F018EF11F02DEF11F067
:102230004028D8A41EEF11F020EF11F028EF11F084
:10224000000E2C6E000E2D6E000E2E6E000E2F6EE8
:102250002E8E000E2F6E35EF11F0000E2C6E000E3C
:102260002D6E000E2E6E000E2F6E2C502D102E1087
:102270002F10D8A43EEF11F040EF11F058EF11F0FD
:10228000000E286E000E296E000E2A6E000E2B6EB8
:10229000800E2A127F0E2B1238502B1228C028F0E5
:1022A00029C029F02AC02AF02BC02BF09BEF12F096
:1022B0003F50D8A45EEF11F060EF11F06AEF11F01B
:1022C000000E286E000E296E000E2A6E000E2B6E78
:1022D0009BEF12F040503FC030F0316A305E000E8C
:1022E000315A7F0E3024396E000E31203A6E28C0EC
:1022F00034F029C035F02AC036F02BC037F0000E7C
:10230000286E000E296E000E2A6E000E2B6E000E37
:102310003B6E000E3C6E000E3D6E000E3E6E000EDB
:10232000406ECBEF11F04050D8B499EF11F09BEF15
:1023300011F0B2EF11F0D8903436353636363736E4
:10234000D890283629362A362B363EAEAAEF11F021
:10235000ACEF11F0ADEF11F02880D8903B363C3651
:102360003D363E362C50345C2D5035582E50365864
:102370002F503758D8A0BFEF11F0C1EF11F0CAEFBE
:1023800011F03E8C2C50345E2D50355A2E50365A5A
:102390002F50375A402A190E4064D1EF11F0D3EF75
:1023A00011F093EF11F03450351036103710D8B4C7
:1023B000DCEF11F0DEEF11F0F6EF11F03B80F6EFFD
:1023C00011F0D890283629362A362B363EAEEBEF60
:1023D00011F0EDEF11F0EEEF11F02880D8903B36C0
:1023E0003C363D363E363906D8A03A062AAEFBEFDB
:1023F00011F0FDEF11F0E1EF11F0000E406E3EAE76
:1024000004EF12F006EF12F02AEF12F0FF0E3B1469
:10241000306EFF0E3C14316EFF0E3D14326E7F0E97
:102420003E14336E3050311032103310D8B41BEFDD
:1024300012F01DEF12F021EF12F0010E406E2AEFA4
:1024400012F028A026EF12F028EF12F02AEF12F077
:102450001DEF12F04050D8B430EF12F032EF12F00E
:1024600056EF12F0010E2826000E29222A222B22D6
:102470002BA03DEF12F03FEF12F056EF12F028C004
:1024800030F029C031F02AC032F02BC033F03334A1
:10249000333232323132303230C028F031C029F09C
:1024A00032C02AF033C02BF0394A3A2A3ABE61EFE3
:1024B00012F03A5008E13928D8A061EF12F063EF2A
:1024C00012F06EEF12F0000E3A6E3968000E286EB0
:1024D000000E296E000E2A6E000E2B6E3ABE7BEFA8
:1024E00012F03A5006E13904D8B079EF12F07BEFE0
:1024F00012F089EF12F0000E3A6E000E396E000EE7
:10250000286E000E296E000E2A6E000E2B6E000E35
:10251000386E39C03FF03FA090EF12F092EF12F00A
:1025200095EF12F02A8E96EF12F02A9ED8903F3047
:102530002B6E4CEF11F01200C9C051F0CAC052F01E
:10254000CBC053F0CCC054F041C051F042C052F067
:1025500043C053F044C054F0810E456EFF0E466EEA
:1025600051C047F052C048F053C049F054C04AF03F
:10257000180EC0EF12F0D8904A3249324832473232
:10258000E82EBBEF12F0475045244F6E000E462058
:10259000506E50BED5EF12F0505009E1170E4F5C4F
:1025A000D8A0D5EF12F0D7EF12F0E1EF12F041C052
:1025B00041F042C042F043C043F044C044F0A4EFB5
:1025C00013F050BEE6EF12F0E8EF12F058EF13F000
:1025D0004FC045F0FF0E466EFF0E476E7F0E486EF1
:1025E000000E496E4566F7EF12F0FFEF12F0493426
:1025F0004932483247324632452EF2EF12F046C099
:102600004BF047C04CF048C04DF049C04EF04B5025
:102610005114456E4C505214466E4D505314476E33
:102620004E505414486E4550461047104810D8A4D8
:102630001CEF13F01EEF13F020EF13F0D7EF12F0A2
:1026400051C045F052C046F053C047F054C048F066
:10265000200E30EF13F0D8904832473246324532E0
:10266000E82E2BEF13F04550461047104810D8B411
:102670003CEF13F03EEF13F046EF13F04B505126B2
:102680004C5052224D5053224E5054224B1C456EFA
:102690004C1C466E4D1C476E4E1C486E45505116E4
:1026A0004650521647505316485054169CEF13F09C
:1026B00051C045F052C046F053C047F054C048F0F6
:1026C000200E68EF13F0D890483247324632453238
:1026D000E82E63EF13F04550461047104810D8A479
:1026E00074EF13F076EF13F080EF13F0000E516EDD
:1026F000000E526E000E536E000E546E9CEF13F0DF
:10270000D8905134456E5234466E5334476E54342B
:10271000486E4550461047104810D8B492EF13F059
:1027200094EF13F09CEF13F0000E516E000E526EFA
:10273000800E536EBF0E546E51C041F052C042F035
:1027400053C043F054C044F01200096E0950D8B48D
:10275000ACEF13F0AEEF13F0D0EF13F004BEB5EF13
:1027600013F0B3EF13F0D0EF13F001C005F002C087
:1027700006F003C007F004C008F0051E061E071E81
:10278000081E052A000E06220722082205C00BF0AB
:1027900006C00CF007C00DF008C00EF0D8EF13F023
:1027A00001C00BF002C00CF003C00DF004C00EF02D
:1027B0000150021003100410D8A4E1EF13F0E3EF6E
:1027C00013F0EDEF13F0000E016E000E026E000E1E
:1027D000036E000E046E7EEF14F0960E0A6EF7EF95
:1027E00013F00A2AD8900E320D320C320B32000E42
:1027F0000B14056E000E0C14066E000E0D14076E01
:10280000FE0E0E14086E0550061007100810D8A40E
:102810000CEF14F00EEF14F0F1EF13F01CEF14F0C6
:102820000A2A010E0B26000E0C220D220E22D89031
:102830000E320D320C320B32000E0B14056E000EF0
:102840000C14066E000E0D14076EFF0E0E14086EAB
:102850000550061007100810D8A431EF14F033EF1C
:1028600014F010EF14F03BEF14F00A06D8900B367A
:102870000C360D360E360DBE40EF14F042EF14F05C
:102880004AEF14F0020E0A6048EF14F04AEF14F019
:1028900035EF14F00AB04FEF14F051EF14F052EF8F
:1028A00014F00D9ED8900A320AC005F0066A076A35
:1028B000086A05C008F0076A066A056A05500B1227
:1028C00006500C1207500D1208500E120950D8B4C1
:1028D0006CEF14F06EEF14F076EF14F004BE75EFA9
:1028E00014F073EF14F076EF14F00E8E0BC001F0BD
:1028F0000CC002F00DC003F00EC004F01200000E78
:10290000166E000E156E000E0F6E000E0E6E8BEF23
:1029100014F0084A092A010E146E08C0F6FF09C017
:10292000F7FF0800F550200AD8B499EF14F09BEF98
:1029300014F0B8EF14F0F70E0A6EFF0E0B6E08C01D
:10294000F6FF09C0F7FF0800F5500C6E0D6A0A503B
:102950000C260B500D220D5009E1050E0C5CD8A081
:10296000B4EF14F0B6EF14F0B8EF14F0000E146EDC
:1029700014C010F0116A10501110D8A4C2EF14F056
:10298000C4EF14F089EF14F0CEEF14F0000E0F6EC8
:10299000010E0E6E084A092A03EF15F008C0F6FF73
:1029A00009C0F7FF0800F5500A6E0B6A0B50000AC9
:1029B000D8B4DDEF14F003EF15F00A502B0AD8B4A9
:1029C000CAEF14F0060AD8B4C6EF14F003EF15F0FE
:1029D00015C001F016C002F0000E046E0A0E036E60
:1029E000B3EC1BF008C0F6FF09C0F7FF0800F55074
:1029F000015E000E025A300E0124156E000E0220F8
:102A0000166ECAEF14F0D00E0A6EFF0E0B6E08C0E1
:102A1000F6FF09C0F7FF0800F5500C6E0D6A0A506A
:102A20000C260B500D220D500AE10A0E0C5CD8A0AA
:102A30001CEF15F01FEF15F0010E20EF15F0000E42
:102A4000126E136A12501310D8A429EF15F02BEF51
:102A500015F0E8EF14F00E500F10D8A432EF15F077
:102A600034EF15F042EF15F015C00AF016C00BF068
:102A70000A1E0B1E0A4A0B2A0AC008F00BC009F0F6
:102A800046EF15F015C008F016C009F01200033427
:102A900004340A6E0A50D8A450EF15F052EF15F026
:102AA0005CEF15F0000E016E000E026E000E036E5C
:102AB000000E046EC9EF15F001C005F002C006F06B
:102AC00003C007F004C008F0200E6CEF15F0D8909A
:102AD0000832073206320532E82E67EF15F005504E
:102AE000096E038EFF0E0116FF0E0216FF0E03166F
:102AF000000E0416960E0A5E0ABE83EF15F081EFF3
:102B000015F099EF15F00A50800A970FD8B08BEFA7
:102B100015F08DEF15F08FEF15F052EF15F0D890FE
:102B200004320332023201320A3E8FEF15F0B1EF68
:102B300015F01F0E0A649FEF15F0A1EF15F0A9EF35
:102B400015F052EF15F0D8900136023603360436F0
:102B50000A060A50D8A4AFEF15F0B1EF15F0A3EFB5
:102B600015F00950D8B4B7EF15F0B9EF15F0C1EF73
:102B700015F0041E031E021E016C000E0222032229
:102B8000042201C001F002C002F003C003F004C03F
:102B900004F01200000E2814306E000E2914316E5D
:102BA000800E2A14326E7F0E2B14336E305031108B
:102BB00032103310D8A4DFEF15F0E1EF15F0E9EF94
:102BC00015F0000E286E000E296E000E2A6E000E03
:102BD0002B6E000E2C14306E000E2D14316E800EF4
:102BE0002E14326E7F0E2F14336E3050311032108F
:102BF0003310D8A4FEEF15F000EF16F008EF16F032
:102C0000000E2C6E000E2D6E000E2E6E000E2F6E1E
:102C10002BAE0DEF16F00FEF16F018EF16F0286C34
:102C2000291ED8B0292A2A1ED8B02A2A800E2B564F
:102C30002FAE1DEF16F01FEF16F028EF16F02C6CDC
:102C40002D1ED8B02D2A2E1ED8B02E2A800E2F561B
:102C5000000E281A000E291A000E2A1A800E2B1AAE
:102C6000000E2C1A000E2D1A000E2E1A800E2F1A8E
:102C70002C50285C2D5029582E502A582F502B5854
:102C8000D8B045EF16F047EF16F04AEF16F0D8909F
:102C90004BEF16F0D8801200CDC00BF0CEC00CF078
:102CA000CFC00DF0D0C00EF001C00BF002C00CF090
:102CB00003C00DF004C00EF00BC005F00CC006F010
:102CC0000DC007F00EC008F0180E6CEF16F0D8908B
:102CD0000832073206320532E82E67EF16F005504B
:102CE000096E0A6A09500A10D8A479EF16F07BEF32
:102CF00016F09BEF16F0D8900B34056E0C34066E70
:102D00000D34076E0E34086E0550061007100810BB
:102D1000D8A48DEF16F08FEF16F095EF16F0000E99
:102D2000026E020E016ECAEF16F0000E026E030E66
:102D3000016ECAEF16F009280A10D8A4A2EF16F007
:102D4000A4EF16F0C6EF16F00BC005F00CC006F0AD
:102D50000DC007F00EC008F0090ED89005360636F3
:102D600007360836E82EADEF16F0055006100710AE
:102D70000810D8B4BEEF16F0C1EF16F0010EC2EF86
:102D800016F0000E016E026ACAEF16F0000E026E17
:102D9000040E016E120001C008F002C009F003C069
:102DA0000AF004C00BF00506D8A00606052806E1C7
:102DB0000628D8A4DEEF16F0E0EF16F0EDEF16F0DF
:102DC000000E026E000E016E35EF17F0084A092A58
:102DD0000A4A0B2A0506D8A0060608C0D9FF09C072
:102DE000DAFFDF50D8B4F7EF16F0F9EF16F024EF62
:102DF00017F00AC0F6FF0BC0F7FF0800F5500009F6
:102E0000D8B405EF17F007EF17F024EF17F00550CF
:102E10000610D8B40EEF17F010EF17F024EF17F0EC
:102E200008C0D9FF09C0DAFFDF50076E0AC0F6FFFD
:102E30000BC0F7FF0800F5500718D8B422EF17F0C1
:102E400024EF17F0E6EF16F008C0D9FF09C0DAFF4B
:102E5000DF50076E0AC0F6FF0BC0F7FF0800F55001
:102E6000075C016E026AD8A0020612000001D7A119
:102E70003CEF17F03EEF17F048EF17F019C010F0D5
:102E80001AC011F017C012F018C013F0DAEC1AF0E3
:102E90001CBE4DEF17F04FEF17F055EF17F01BC0AA
:102EA00020F01CC021F059EF17F0000E216E000E2B
:102EB000206E000E1F6E000E1E6E6BEF17F0000EE0
:102EC000086E200E076E17C009F018C00AF0A8ECB3
:102ED00018F01E4A1F2A20501E5C1F50800A1D6ECB
:102EE0002150800A1D58D8A078EF17F07AEF17F01C
:102EF0005FEF17F00001D7B180EF17F082EF17F006
:102F00008CEF17F019C010F01AC011F017C012F0B2
:102F100018C013F0DAEC1AF019C001F01AC002F070
:102F200071EC1BF020500124176E21500220186E06
:102F30001200000E066E04BEA2EF17F0A0EF17F00D
:102F4000A8EF17F0036C041ED8B0042A010E066E19
:102F500002BEAFEF17F0ADEF17F0B5EF17F0016C51
:102F6000021ED8B0022A010E061A000E086E000ECC
:102F7000076E03500410D8B4C0EF17F0C2EF17F07B
:102F8000EAEF17F0010E056ECAEF17F0D89003367E
:102F90000436052A04AECFEF17F0D1EF17F0C6EFD5
:102FA00017F0D890073608360350015C04500258D9
:102FB000D8A0DDEF17F0DFEF17F0E4EF17F00350C4
:102FC000015E0450025A0780D89004320332052E65
:102FD000D1EF17F00650D8B4F0EF17F0F2EF17F07A
:102FE000F6EF17F0076C081ED8B0082A07C001F0EA
:102FF00008C002F01200000E066E02BE04EF18F0C8
:1030000002EF18F00AEF18F0016C021ED8B0022A85
:10301000010E066E04BE11EF18F00FEF18F015EF59
:1030200018F0036C041ED8B0042A03500410D8B45E
:103030001CEF18F01EEF18F042EF18F0010E056EAD
:1030400026EF18F0D89003360436052A04AE2BEF8D
:1030500018F02DEF18F022EF18F00350015C045027
:103060000258D8A036EF18F038EF18F03CEF18F0FF
:103070000350015E0450025AD89004320332052EE8
:103080002DEF18F00650D8B448EF18F04AEF18F0BA
:103090004EEF18F0016C021ED8B0022A01C001F0F8
:1030A00002C002F01200000E0114096E000E02149C
:1030B0000A6E800E03140B6E7F0E04140C6E095002
:1030C0000A100B100C10D8A468EF18F06AEF18F073
:1030D00072EF18F0000E016E000E026E000E036E0D
:1030E000000E046E000E0514096E000E06140A6E22
:1030F000800E07140B6E7F0E08140C6E09500A1018
:103100000B100C10D8A487EF18F089EF18F091EF8E
:1031100018F0000E056E000E066E000E076E000E13
:10312000086E055001180FE1065002180CE1075017
:10313000031809E108500418D8B4A1EF18F0A3EF60
:1031400018F0A6EF18F0D890A7EF18F0D88012006A
:1031500009500A10D8B4AFEF18F0B1EF18F0BAEF79
:1031600018F009500A10D8A4B8EF18F0BAEF18F008
:10317000BFEF18F00750FBEC1BF0F2EF18F020EE59
:1031800004F00950D9260A50DA22DE50DE10D8B4F5
:10319000CCEF18F0CEEF18F0E9EF18F020EE04F0C5
:1031A0000950D9260A50DA2210EE02F00950E12621
:1031B0000A50E222DE50E65CE650800A0F6EDE50D6
:1031C000800A0F58D8B0E7EF18F0E9EF18F0F2EFE7
:1031D00018F020EE02F00950D9260A50DA22DE2A31
:1031E000000EDD221200000E136E000E146EA00EF3
:1031F000156E400E166EC3C001F0C4C002F0000E82
:1032000002BEFF0E036E046E010EA5EC13F001C0AA
:103210000FF002C010F003C011F004C012F0BAECBD
:103220000EF00FC028F010C029F011C02AF012C013
:103230002BF0000E2C6EC00E2D6E7F0E2E6E440EE7
:103240002F6ECFEC10F028C0C5F029C0C6F02AC000
:10325000C7F02BC0C8F0010E0001B96F080EBA6F9D
:10326000C5C0BBF0C6C0BCF0C7C0BDF0C8C0BEF092
:103270008CEC1BF01200026E838202C001F0010E82
:103280000116013A83500118EF0B0118836E02C03A
:1032900001F0D8900132010E0116013A0146835027
:1032A0000118DF0B0118836E02C001F0D8900132C3
:1032B000D8900132010E0116013A014601468350B1
:1032C0000118BF0B0118836E02C001F0D8900132C3
:1032D000D8900132D8900132010E0116013201322C
:1032E000835001187F0B0118836E100EE82EFED755
:1032F00000D08392100EE82EFED700D012008392E9
:103300008398839A839C839E410E056EEE0EE82E71
:10331000FED7052EFCD700D0030E3BEC19F0060EAD
:10332000056E300EE82EFED7052EFCD700D0030E1A
:103330003BEC19F0210EE82EFED700F0030E3BEC1B
:1033400019F0020E3BEC19F0010E036E000EC6ECF4
:103350001BF0030E056E980EE82EFED7052EFCD747
:10336000280E036E000EC6EC1BF00C0E036E000E52
:10337000C6EC1BF0060E036E000EC6EC1BF012002E
:10338000000E836E000E956E000E936EC280C150CB
:10339000F00B0E09C16EC08EC050F80B0409C06E50
:1033A0009D8CF28EF28C7FEC19F0E7EC1BF0000E96
:1033B0000001DA6F000ED96F030E056E010EFCECF2
:1033C0001AF0C282C2B2E7EF19F0E9EF19F0E2EFAA
:1033D00019F0C3CFD9F0C4CFDAF0D9C0C3F0DAC046
:1033E000C4F0F3EC18F0410E5E6EEE0EE82EFED740
:1033F0005E2EFCD700D0DCEF19F007EF00F0B5C06F
:103400005CF0B6C05DF0000E0001D26F000ED16F0F
:103410001DEF1AF0B3C09DF0B4C09EF05C0E9F6F1C
:10342000000EA06FB7C0A1F0B8C0A2F06FEC0CF016
:1034300000019D51D1279E51D2235CC0F6FF5DC093
:10344000F7FF0800F5500009D8A429EF1AF02BEF78
:103450001AF00AEF1AF0D1C0B3F0D2C0B4F01200E3
:10346000BF0E096EFF0E0A6E07C00BF008C00CF00D
:1034700009500B260A500C220C500AE11A0E0B5C64
:10348000D8A045EF1AF048EF1AF0010E49EF1AF0F4
:10349000000E0D6E0E6A0D500E10D8B452EF1AF0D9
:1034A00054EF1AF05BEF1AF0200E0710076E085069
:1034B000086E5FEF1AF007C007F008C008F01200AE
:1034C00003C007F004C008F001C009F002C00AF010
:1034D0000750056E0850066E074A082A05C0F6FF19
:1034E00006C0F7FFF86A09C0D9FF0AC0DAFF094A27
:1034F0000A2A070EF76403D00800F55005D0F6CF6E
:10350000E1FFF7CFE2FFE750DF6EDF50D8A48BEF8B
:103510001AF08DEF1AF068EF1AF01200010E076E24
:10352000200E01180210D8B498EF1AF09AEF1AF092
:10353000B3EF1AF0F70E036EFF0E046E01C005F034
:1035400002C006F00350052604500622065009E189
:10355000050E055CD8A0AFEF1AF0B1EF1AF0B3EF8B
:103560001AF0000E076E07C001F0026A1200000E8A
:103570002C1A000E2D1A000E2E1A800E2F1A28C09B
:1035800001F029C002F02AC003F02BC004F02CC0C7
:1035900005F02DC006F02EC007F02FC008F00FEC8C
:1035A0000AF001C028F002C029F003C02AF004C0CC
:1035B0002BF01200000E166E000E156EEBEF1AF0D7
:1035C00014C007F0086A12C009F013C00AF0A8EC92
:1035D00018F0154A162A15501024D96E16501120CD
:1035E000DA6EDF50146E1450D8A4F9EF1AF0FBEF26
:1035F0001AF0E0EF1AF01200066E000E076E0604D5
:10360000D8A405EF1BF007EF1BF009EF1BF0800EAD
:10361000076E020E0618D8A410EF1BF012EF1BF075
:1036200014EF1BF0C00E076E07500524076E07C08D
:1036300003F0000EC6EC1BF01200BF0E036EFF0E6F
:10364000046E01C005F002C006F0035005260450C8
:10365000062206500AE11A0E055CD8A032EF1BF0D4
:1036600035EF1BF0010E36EF1BF0000E016E026A03
:1036700012000150021003100410D8B442EF1BF0E6
:1036800044EF1BF04CEF1BF0000E011A000E021A63
:10369000000E031A800E041A01C001F002C002F0ED
:1036A00003C003F004C004F01200D00E036EFF0E3E
:1036B000046E01C005F002C006F003500526045058
:1036C000062206500AE10A0E055CD8A06AEF1BF03C
:1036D0006DEF1BF0010E6EEF1BF0000E016E026A23
:1036E000120001C003F002C004F079EF1BF0014AA0
:1036F000022A01C0D9FF02C0DAFFDF50D8A483EF4D
:103700001BF085EF1BF077EF1BF00350015C016E9F
:1037100004500258026E1200BB0E0001C16F000E71
:10372000C26F000EB36F000EB46FB9C0B5F0BAC06F
:10373000B6F0C10EB76F000EB86FFFEC19F01200B3
:1037400001EE00F0500EEE6AE806FDE100EEC9F071
:10375000120EEE6AE806FDE15F905F92000EF86ED1
:103760000001C0EF19F001500302F3CF05F0F4CFD0
:1037700006F001500402F350062602500302F350F3
:10378000062605C001F006C002F01200046E04B067
:1037900002D0839001D0838000D000D000F00338A5
:1037A0000F0B3BEC19F003500F0B3BEC19F0120020
:1037B00006009EACDEEF1BF0E0EF1BF0E5EF1BF028
:1037C0009E9CC3CFD9F0C4CFDAF05F921100010EF6
:1037D000036E000EC6EC1BF0030E056E980EE82E6D
:1037E000FED7052EFCD71200056E05C003F0010EB2
:1037F000C6EC1BF01200066E0650F4EC1BF0120033
:020000040020DA
:08000000FFFFFFFFFFFFFFFF00
:020000040030CA
:0E00000000051F1FFF8185FF0FC00FE00F409E
:00000001FF
