:020000040000FA
:040000003AEF00F0E3
:020004000000FA
:0A00060000A009EF00F0010F09EF60
:1000100000F000A20FEF00F0020F0FEF00F000A4BD
:1000200015EF00F0040F15EF00F000A61BEF00F035
:10003000080F1BEF00F0026E000E1FEF00F000A88B
:1000400025EF00F0010F25EF00F000AA2BEF00F0E4
:10005000020F2BEF00F000AC31EF00F0040F31EF96
:1000600000F000AE37EF00F0080F37EF00F0036E3E
:100070003FEF00F0FF0E006E000E03EF00F0000EE9
:0A00800002500324016E43EF00F06C
:00000001FF
