:020000040000FA
:0400000007EF00F016
:100008000C8209ED00F0F6EF00F00600F2A20FEF07
:1000180000F011EF00F02DEF00F0F2920704081045
:10002800D8A419EF00F01BEF00F027EF00F0939829
:100038009398060E0B6E000E0A6E000E086E000EE8
:10004800076E5DEF00F0010E096E5DEF00F05DEFE9
:1000580000F0F0A032EF00F034EF00F05DEF00F0B8
:10006800F09007500810D8A43CEF00F03EEF00F0E5
:1000780051EF00F00950D8A444EF00F046EF00F02B
:100088005DEF00F0090E0B604CEF00F04EEF00F052
:100098002BEF00F00B2A5DEF00F007040810D8A43E
:1000A80058EF00F05AEF00F05DEF00F093981DEF65
:1000B80000F00C9211000B50D8A465EF00F067EF28
:1000C80000F08AEF00F00A50D8A46DEF00F06FEF4F
:1000D80000F08AEF00F0000E0B6E000E0A6E000EA4
:1000E800096E000E086E010E076E81EF00F007C062
:1000F80001F008C002F0CBEC00F007040810D8B4F7
:1001080088EF00F08AEF00F07BEF00F00A50D8B4D7
:1001180090EF00F092EF00F095EF00F00A06A0EFE4
:1001280000F00904D8A49BEF00F09DEF00F0A0EFC9
:1001380000F00B06090E0A6E1200E2EC00F00950FE
:10014800D8B4A9EF00F0ABEF00F0ADEF00F05FEC32
:1001580000F0FFEC00F0990E066E310E056EA20E4F
:10016800E82EFED7052EFCD7062EFAD700D0990E1A
:10017800066E310E056EA20EE82EFED7052EFCD7B0
:10018800062EFAD700D0A3EF00F007EF00F0010425
:100198000210D8A4D2EF00F0D4EF00F0E1EF00F0A5
:1001A8008178020E046E450E036EAA0EE82EFED765
:1001B800032EFCD7042EFAD79378120093809382EB
:1001C8009398000E956E040E816E000E836EF28871
:1001D800F086F28EF28C000E0A6E060E0B6E000E82
:1001E800096E12000A6A096A086A076A0C900C927A
:1001F8000001A1EF00F00B38F00B0A10836E12001B
:020000040020DA
:08000000FFFFFFFFFFFFFFFF00
:020000040030CA
:0E00000000051F1FFF8185FF0FC00FE00F409E
:00000001FF
